:020000040800F2
:100000000028002045100008D50F0008DB0F00086D
:10001000E10F0008E70F0008ED0F000800000000E6
:10002000000000000000000000000000F30F0008C6
:10003000FF0F0008000000000B1000081710000858
:100040008D1000088D1000088D1000088D1000081C
:100050008D1000088D1000088D1000088D1000080C
:100060008D1000088D1000088D1000088D100008FC
:100070008D1000088D1000088D1000088D100008EC
:100080008D1000088D1000088D1000088D100008DC
:100090008D1000088D1000088D1000088D100008CC
:1000A0008D1000088D1000088D1000088D100008BC
:1000B000251000088D100008000000008D100008B9
:1000C0008D10000800000000000000008D100008E6
:1000D000000000008D1000088D10000800000000D6
:1000E0008D1000088D1000088D1000080000000021
:1000F0000000000000000000000000000000000000
:0C01000000000000000000005FF808F1A3
:10010C0010B5054C237833B9044B13B10448AFF345
:10011C0000800123237010BD3C0000200000000073
:10012C009826000808B5034B1BB103490348AFF3ED
:10013C00008008BD00000000400000209826000848
:10014C0080B500AF012204212E4801F087FA01226C
:10015C0008212C4801F082FA01224FF480612948D1
:10016C0001F07CFA01224FF40061264801F076FA86
:10017C0001224FF48051234801F070FA01224FF410
:10018C000051204801F06AFA01224FF480411D48C9
:10019C0001F064FA01224FF400411A4801F05EFAB2
:1001AC0001224FF48071184801F058FA01224FF4E3
:1001BC000071154801F052FA01224FF48061124887
:1001CC0001F04CFA01224FF400610F4801F046FA9D
:1001DC0001224FF480510C4801F040FA01224FF4F7
:1001EC000051094801F03AFA01224FF480410648C7
:1001FC0001F034FA01224FF40041034801F02EFAC9
:10020C0000BF80BD00080140000C014080B582B0E9
:10021C0000AF7860FFF794FF7B68072B00F25683E2
:10022C0001A252F823F000BF550200082103000878
:10023C00ED030008C90400089705000865060008CE
:10024C00410700080D08000800220421984801F01D
:10025C0005FA984B1B7803F00103002B05D0002204
:10026C004FF48071944801F0F9F9924B1B7803F02C
:10027C000203002B05D000224FF400718E4801F0D0
:10028C00EDF98C4B1B7803F00403002B05D00022F6
:10029C004FF48061884801F0E1F9864B1B7803F03C
:1002AC000803002B05D000224FF40061824801F0B6
:1002BC00D5F9804B1B7803F01003002B05D00022DE
:1002CC004FF480517C4801F0C9F97A4B1B7803F04C
:1002DC002003002B05D000224FF40051764801F08A
:1002EC00BDF9744B1B7803F04003002B05D00022A2
:1002FC004FF48041704801F0B1F96E4B1B785BB242
:10030C00002B80F2E58200224FF400416A4801F094
:10031C00A5F9DDE200220821654801F09FF9654B43
:10032C005B7803F00103002B05D000224FF48071A1
:10033C00614801F093F95F4B5B7803F00203002BEB
:10034C0005D000224FF400715B4801F087F9594B3E
:10035C005B7803F00403002B05D000224FF480617E
:10036C00554801F07BF9534B5B7803F00803002BE5
:10037C0005D000224FF400614F4801F06FF94D4B4E
:10038C005B7803F01003002B05D000224FF4805152
:10039C00494801F063F9474B5B7803F02003002BCD
:1003AC0005D000224FF40051434801F057F9414B5E
:1003BC005B7803F04003002B05D000224FF4804102
:1003CC003D4801F04BF93B4B5B785BB2002B80F264
:1003DC00818200224FF40041374801F03FF979E265
:1003EC0000224FF48061324801F038F9314B9B7890
:1003FC0003F00103002B05D000224FF480712E482E
:10040C0001F02CF92B4B9B7803F00203002B05D049
:10041C0000224FF40071284801F020F9254B9B78FD
:10042C0003F00403002B05D000224FF48061224816
:10043C0001F014F91F4B9B7803F00803002B05D037
:10044C0000224FF400611C4801F008F9194B9B780D
:10045C0003F01003002B05D000224FF480511648F6
:10046C0001F0FCF8134B9B7803F02003002B05D014
:10047C0000224FF40051104801F0F0F80D4B9B781E
:10048C0003F04003002B05D000224FF480410A48B2
:10049C0001F0E4F8074B9B785BB2002B80F21C82D6
:1004AC0000224FF40041044801F0D8F814E200BFD8
:1004BC00000801401C000020000C014000224FF4F9
:1004CC000061994801F0CAF8984BDB7803F00103FE
:1004DC00002B05D000224FF48071954801F0BEF836
:1004EC00924BDB7803F00203002B05D000224FF473
:1004FC0000718F4801F0B2F88C4BDB7803F00403E9
:10050C00002B05D000224FF48061894801F0A6F839
:10051C00864BDB7803F00803002B05D000224FF448
:10052C000061834801F09AF8804BDB7803F01003EC
:10053C00002B05D000224FF480517D4801F08EF83D
:10054C007A4BDB7803F02003002B05D000224FF40C
:10055C000051774801F082F8744BDB7803F04003CC
:10056C00002B05D000224FF48041714801F076F841
:10057C006E4BDB785BB2002B80F2B08100224FF423
:10058C0000416B4801F06AF8A8E100224FF4805159
:10059C00654801F063F8654B1B7903F00103002BF0
:1005AC0005D000224FF48071614801F057F85F4B81
:1005BC001B7903F00203002B05D000224FF40071CD
:1005CC005B4801F04BF8594B1B7903F00403002BEB
:1005DC0005D000224FF48061554801F03FF8534B91
:1005EC001B7903F00803002B05D000224FF40061A7
:1005FC004F4801F033F84D4B1B7903F01003002BDF
:10060C0005D000224FF48051494801F027F8474BA0
:10061C001B7903F02003002B05D000224FF400516E
:10062C00434801F01BF8414B1B7903F04003002BAE
:10063C0005D000224FF480413D4801F00FF83B4BB0
:10064C001B795BB2002B80F24B8100224FF40041EE
:10065C00374801F003F843E100224FF400513248CF
:10066C0000F0FCFF314B5B7903F00103002B05D04C
:10067C0000224FF480712E4800F0F0FF2B4B5B7979
:10068C0003F00203002B05D000224FF40071284820
:10069C0000F0E4FF254B5B7903F00403002B05D03D
:1006AC0000224FF48061224800F0D8FF1F4B5B7989
:1006BC0003F00803002B05D000224FF400611C4806
:1006CC0000F0CCFF194B5B7903F01003002B05D025
:1006DC0000224FF48051164800F0C0FF134B5B7999
:1006EC0003F02003002B05D000224FF400511048DA
:1006FC0000F0B4FF0D4B5B7903F04003002B05D0E9
:10070C0000224FF480410A4800F0A8FF074B5B79A8
:10071C005BB2002B80F2E68000224FF400410448CB
:10072C0000F09CFFDEE000BF000801401C00002030
:10073C00000C014000224FF480416F4800F08EFF06
:10074C006E4B9B7903F00103002B05D000224FF474
:10075C0080716B4800F082FF684B9B7903F00203B9
:10076C00002B05D000224FF40071654800F076FF95
:10077C00624B9B7903F00403002B05D000224FF44D
:10078C0080615F4800F06AFF5C4B9B7903F00803C3
:10079C00002B05D000224FF40061594800F05EFF99
:1007AC00564B9B7903F01003002B05D000224FF41D
:1007BC008051534800F052FF504B9B7903F02003BB
:1007CC00002B05D000224FF400514D4800F046FF9D
:1007DC004A4B9B7903F04003002B05D000224FF4C9
:1007EC008041474800F03AFF444B9B795BB2002BA9
:1007FC007ADA00224FF40041414800F02FFF73E0F9
:10080C0000224FF400413C4800F028FF3B4BDB79C1
:10081C0003F00103002B05D000224FF480713848FF
:10082C0000F01CFF354BDB7903F00203002B05D0E5
:10083C0000224FF40071324800F010FF2F4BDB798F
:10084C0003F00403002B05D000224FF480612C48E8
:10085C0000F004FF294BDB7903F00803002B05D0D3
:10086C0000224FF40061264800F0F8FE234BDB79A0
:10087C0003F01003002B05D000224FF480512048C8
:10088C0000F0ECFE1D4BDB7903F02003002B05D0B0
:10089C0000224FF400511A4800F0E0FE174BDB79B0
:1008AC0003F04003002B05D000224FF48041144884
:1008BC0000F0D4FE114BDB795BB2002B16DA002270
:1008CC004FF400410E4800F0C9FE0FE000BF0EE0EF
:1008DC0000BF0CE000BF0AE000BF08E000BF06E06C
:1008EC0000BF04E000BF02E000BF00E000BF00BF9B
:1008FC000837BD4680BD00BF000801401C00002029
:10090C00000C014080B483B000AF0E4B1B78FB7021
:10091C0001237B600AE07B68013B0A497A680A4440
:10092C001178084AD1547B6801337B607B68072BB4
:10093C00F1DD044AFB78D37100BF0C37BD4680BC97
:10094C00704700BF1C00002080B500AF00F09AFB80
:10095C0000F09AF900F020FA00F0D2F93F4801F0CB
:10096C00DDFAFA2000F074FA322000F08DFAFFF76D
:10097C00E7FB3B4B1B68012B4FD13A4B1B6803F039
:10098C000103002B03D13021374800F07FFE354B9B
:10099C001B68002B25D1354B1B680133334A136080
:1009AC00324B1B683B2B07DD304B00221A60304B5F
:1009BC001B6801332E4A13602D4B1B683B2B07DD44
:1009CC002B4B00221A602B4B1B680133294A1360F6
:1009DC00284B1B68172B02DD264B00221A6000F0F7
:1009EC0009F9204B1B68184600F0B8F81D4B1B6822
:1009FC00214A52F82330184600F044F8194B1B6872
:100A0C0001335A4203F0030302F0030258BF53426E
:100A1C00144A1360FA2000F01BFA184B1B68012BC8
:100A2C00A7D1174B1B685A1C15490A601846FFF7CB
:100A3C00EDFB134B1B68082293FBF2F101FB02F256
:100A4C009B1A0F4A13600E4B1B68002B01D1FFF74A
:100A5C0059FF322000F018FA8BE700BF5800002035
:100A6C00A8000020A0000020000801401800002071
:100A7C00140000201000002000000020B000002016
:100A8C00A400002080B582B000AF7860314A7B684A
:100A9C0013441B7803F00103DBB21A4601212E48E4
:100AAC0000F0DCFD2B4A7B6813441B785B08DBB23F
:100ABC0003F00103DBB21A460221274800F0CEFDF9
:100ACC00244A7B6813441B789B08DBB203F00103B8
:100ADC00DBB21A460421204800F0C0FD1D4A7B6899
:100AEC0013441B78DB08DBB203F00103DBB21A46BC
:100AFC000821194800F0B2FD164A7B6813441B7894
:100B0C001B09DBB203F00103DBB21A4610211248B9
:100B1C0000F0A4FD0F4A7B6813441B785B09DBB221
:100B2C0003F00103DBB21A4620210B4800F096FDBE
:100B3C00084A7B6813441B789B09DBB203F0010362
:100B4C00DBB21A464021044800F088FD00BF08378C
:100B5C00BD4680BD24000020000C014080B582B051
:100B6C0000AF78607B68032B3CD801A252F823F0CD
:100B7C008D0B0008A50B0008BD0B0008D70B000857
:100B8C00002240211A4800F069FD01224FF46071E7
:100B9C00174800F063FD26E000228021144800F085
:100BAC005DFD01224FF45071114800F057FD1AE021
:100BBC0000224FF480710E4800F050FD01224FF4DA
:100BCC0030710B4800F04AFD0DE000224FF400712B
:100BDC00074800F043FD01224FF4E071044800F097
:100BEC003DFD00E000BF00BF0837BD4680BD00BF23
:100BFC000008014080B400AF1A4B1B681A4A82FBF4
:100C0C0003129210DB17D31A184A1360154B19688C
:100C1C00154B83FB01239A10CB17D21A13469B005A
:100C2C0013445B00CA1A114B5A60114B1B680E4AD5
:100C3C0082FB03129210DB17D31A0C4A93600C4BF5
:100C4C001968094B83FB01239A10CB17D21A134650
:100C5C009B0013445B00CA1A044BDA6000BFBD460C
:100C6C0080BC70471000002067666666000000209C
:100C7C001400002080B582B000AF786000F020F93D
:100C8C0000BF0837BD4680BD80B590B000AF07F1FE
:100C9C00180328220021184601F0CCFC3B1D002231
:100CAC001A605A609A60DA601A610223BB610123F0
:100CBC00BB621023FB6200237B6307F11803184609
:100CCC0000F0FEFC0346002B01D000F0BBF80F2314
:100CDC007B600023BB600023FB6000233B6100238F
:100CEC007B613B1D0021184600F06CFF0346002B76
:100CFC0001D000F0A7F800BF4037BD4680BD000012
:100D0C0080B586B000AF07F1080300221A605A6064
:100D1C009A60DA603B4600221A605A601D4B4FF015
:100D2C0080421A601B4B41F63F725A60194B0022ED
:100D3C009A60184B0922DA60164B00221A61154B87
:100D4C0000229A61134801F099F80346002B01D058
:100D5C0000F078F84FF48053BB6007F10803194694
:100D6C000C4801F017FA0346002B01D000F06AF88A
:100D7C0000233B6000237B603B461946054801F08D
:100D8C00EFFB0346002B01D000F05CF800BF1837D6
:100D9C00BD4680BD5800002080B586B000AF07F17D
:100DAC00080300221A605A609A60DA60224B9B6931
:100DBC00214A43F0040393611F4B9B6903F0040326
:100DCC007B607B681C4B9B691B4A43F00803936157
:100DDC00194B9B6903F008033B603B6800224FF6FC
:100DEC00FC71164800F03AFC00224FF67F71144853
:100DFC0000F034FC4FF6FC73BB600123FB60002356
:100E0C003B6102237B6107F1080319460B4800F094
:100E1C00A9FA4FF67F73BB600123FB6000233B6193
:100E2C0002237B6107F108031946054800F09AFA82
:100E3C0000BF1837BD4680BD0010024000080140BD
:100E4C00000C014080B400AF72B600BFFEE700009A
:100E5C0080B483B000AF78607B68084A82FB0312D1
:100E6C009210DB17D31A064A1360064B00221A6045
:100E7C0000BF0C37BD4680BC704700BF6766666616
:100E8C00AC000020A800002080B483B000AF7860D4
:100E9C007B68084A82FB03129210DB17D31A064AAE
:100EAC001360064B00221A6000BF0C37BD4680BC95
:100EBC00704700BF67666666B4000020B000002073
:100ECC0080B400AF114B1B68002B0BDD0F4B1B6864
:100EDC00013B0E4A13600D4B1B68002B02D10C4BCF
:100EEC0001221A600B4B1B68002B0BDD094B1B6896
:100EFC00013B084A1360074B1B68002B02D1064BC1
:100F0C0001221A6000BFBD4680BC7047AC000020B7
:100F1C00A8000020B4000020B000002080B485B0F0
:100F2C0000AF154B9B69144A43F001039361124BBC
:100F3C009B6903F00103BB60BB680F4BDB690E4A76
:100F4C0043F08053D3610C4BDB6903F080537B601F
:100F5C007B680A4B5B68FB60FB6823F0E063FB601B
:100F6C00FB6843F08063FB60044AFB68536000BF7E
:100F7C001437BD4680BC7047001002400000014091
:100F8C0080B584B000AF78607B681B68B3F1804F8C
:100F9C0013D10C4BDB690B4A43F00103D361094BB2
:100FAC00DB6903F00103FB60FB68002200211C20BD
:100FBC0000F0A1F91C2000F0BAF900BF1037BD46B3
:100FCC0080BD00BF0010024080B400AFFEE780B4CB
:100FDC0000AFFEE780B400AFFEE780B400AFFEE7E1
:100FEC0080B400AFFEE780B400AF00BFBD4680BC4C
:100FFC00704780B400AF00BFBD4680BC704780B462
:10100C0000AF00BFBD4680BC704780B500AF00F09C
:10101C007FF800BF80BD000080B500AF024800F033
:10102C00C9FF00BF80BD00BF5800002080B400AFD6
:10103C0000BFBD4680BC7047FFF7F8FF0B480C495A
:10104C000C4A002302E0D458C4500433C4188C4218
:10105C00F9D3094A094C002301E013600432A2427F
:10106C00FBD301F0EFFAFFF76FFC70470000002094
:10107C003C000020DC2600083C000020BC000020C6
:10108C00FEE7000080B500AF084B1B68074A43F031
:10109C0010031360032000F023F90F2000F008F870
:1010AC00FFF73CFF0023184680BD00BF0020024024
:1010BC0080B582B000AF7860124B1A68124B1B7867
:1010CC0019464FF47A73B3FBF1F3B2FBF3F3184602
:1010DC0000F03BF90346002B01D001230EE07B68A6
:1010EC000F2B0AD8002279684FF0FF3000F003F97B
:1010FC00064A7B681360002300E00123184608377A
:10110C00BD4680BD30000020380000203400002097
:10111C0080B400AF054B1B781A46054B1B68134473
:10112C00034A136000BFBD4680BC704738000020E6
:10113C00B800002080B400AF024B1B681846BD46B7
:10114C0080BC7047B800002080B485B000AF7860D8
:10115C007B6803F00703FB600C4BDB68BB60BA6871
:10116C004FF6FF031340BB60FB681A02BB681343C6
:10117C0043F0BF6343F40033BB60044ABB68D360E5
:10118C0000BF1437BD4680BC704700BF00ED00E0C7
:10119C0080B400AF044BDB681B0A03F0070318464E
:1011AC00BD4680BC704700BF00ED00E080B483B04A
:1011BC0000AF0346FB7197F90730002B0BDBFB7973
:1011CC0003F01F02064997F907305B09012000FA6A
:1011DC0002F241F8232000BF0C37BD4680BC70479B
:1011EC0000E100E080B483B000AF03463960FB71CE
:1011FC0097F90730002B0ADB3B68DAB20C4997F9F8
:10120C0007301201D2B20B4483F800230AE03B688A
:10121C00DAB20849FB7903F00F03043B1201D2B296
:10122C000B441A7600BF0C37BD4680BC704700BF1C
:10123C0000E100E000ED00E080B489B000AFF860A0
:10124C00B9607A60FB6803F00703FB61FB69C3F1CB
:10125C000703042B28BF0423BB61FB690433062B53
:10126C0002D9FB69033B00E000237B614FF0FF32A6
:10127C00BB6902FA03F3DA43BB681A407B699A40F4
:10128C004FF0FF317B6901FA03F3D9437B680B40C4
:10129C00134318462437BD4680BC704780B582B0D6
:1012AC0000AF78607B68013BB3F1807F01D30123F1
:1012BC000FE00A4A7B68013B53600F214FF0FF306F
:1012CC00FFF790FF054B00229A60044B07221A602F
:1012DC00002318460837BD4680BD00BF10E000E073
:1012EC0080B582B000AF78607868FFF72DFF00BF43
:1012FC000837BD4680BD80B586B000AF0346B960E7
:10130C007A60FB7300237B61FFF742FF78617A6898
:10131C00B9687869FFF790FF024697F90F301146CC
:10132C001846FFF75FFF00BF1837BD4680BD80B57C
:10133C0082B000AF0346FB7197F907301846FFF7F0
:10134C0035FF00BF0837BD4680BD80B582B000AF09
:10135C0078607868FFF7A2FF034618460837BD4649
:10136C0080BD000080B48BB000AF78603960002382
:10137C007B6200233B6261E101227B6A02FA03F388
:10138C00FB613B681B68FA691340BB61BA69FB6976
:10139C009A4240F050813B685B68974A93425ED01A
:1013AC00954A934275D8954A934258D0934A9342A2
:1013BC006FD8934A934252D0914A934269D8914A3A
:1013CC0093424CD08F4A934263D88F4A934246D073
:1013DC008D4A93425DD8122B2AD8122B59D801A2D0
:1013EC0052F823F06B140008451400085714000839
:1013FC00991400089F1400089F1400089F140008FB
:10140C009F1400089F1400089F1400089F140008E4
:10141C009F1400089F1400089F1400089F140008D4
:10142C009F1400089F1400084D1400086114000854
:10143C00764A934213D02CE03B68DB683B6229E090
:10144C003B68DB6804333B6224E03B68DB680833B1
:10145C003B621FE03B68DB680C333B621AE03B6885
:10146C009B68002B02D104233B6213E03B689B6812
:10147C00012B05D108233B627B68FA691A6109E0EC
:10148C0008233B627B68FA695A6103E000233B62E4
:10149C0000E000BFBB69FF2B01D87B6801E07B68D3
:1014AC0004337B61BB69FF2B02D87B6A9B0002E093
:1014BC007B6A083B9B003B617B691A680F213B6987
:1014CC0001FA03F3DB431A40396A3B6901FA03F36F
:1014DC001A437B691A603B685B6803F08053002BEE
:1014EC0000F0A9804A4B9B69494A43F00103936180
:1014FC00474B9B6903F00103BB60BB68454A7B6AA1
:10150C009B08023352F82330FB607B6A03F0030321
:10151C009B000F2202FA03F3DB43FA681340FB60D3
:10152C007B683D4A93420DD07B683C4A934207D07E
:10153C007B683B4A934201D1022304E0032302E07F
:10154C00012300E000237A6A02F003029200934028
:10155C00FA681343FB602F497B6A9B080233FA68D5
:10156C0041F823203B685B6803F48013002B06D002
:10157C002C4B9A682B49BB6913438B6006E0294BB3
:10158C009A68BB69DB43274913408B603B685B68F7
:10159C0003F40013002B06D0224BDA682149BB69F7
:1015AC001343CB6006E01F4BDA68BB69DB431D4974
:1015BC001340CB603B685B6803F40033002B06D010
:1015CC00184B5A681749BB6913434B6006E0154B1F
:1015DC005A68BB69DB43134913404B603B685B683B
:1015EC0003F48033002B1FD00E4B1A680D49BB69D6
:1015FC0013430B601FE000BF0000321000003110DD
:10160C000000221000002110000012100000111028
:10161C00001002400000014000080140000C014095
:10162C0000100140000401400B4B1A68BB69DB43FE
:10163C00094913400B607B6A01337B623B681A6873
:10164C007B6A22FA03F3002B7FF496AE00BF00BF37
:10165C002C37BD4680BC70470004014080B483B079
:10166C0000AF78600B467B8013467B707B78002B39
:10167C0003D07A887B681A6103E07B881A047B6844
:10168C001A6100BF0C37BD4680BC704780B485B072
:10169C0000AF78600B467B807B68DB68FB607A88E8
:1016AC00FB6813401A04FB68D9437B880B401A4330
:1016BC007B681A6100BF1437BD4680BC70470000C0
:1016CC0080B586B000AF78607B68002B01D1012318
:1016DC0072E27B681B6803F00103002B00F087802B
:1016EC00924B5B6803F00C03042B0CD08F4B5B68A4
:1016FC0003F00C03082B12D18C4B5B6803F4803382
:10170C00B3F5803F0BD1894B1B6803F40033002BDE
:10171C006CD07B685B68002B68D101234CE27B6842
:10172C005B68B3F5803F06D1804B1B687F4A43F45E
:10173C00803313602EE07B685B68002B0CD17B4BF5
:10174C001B687A4A23F480331360784B1B68774A02
:10175C0023F4802313601DE07B685B68B3F5A02F36
:10176C000CD1724B1B68714A43F4802313606F4B8E
:10177C001B686E4A43F4803313600BE06B4B1B68A1
:10178C006A4A23F480331360684B1B68674A23F45E
:10179C00802313607B685B68002B13D0FFF7CAFCB7
:1017AC00386108E0FFF7C6FC02463B69D31A642B8C
:1017BC0001D9032300E25D4B1B6803F40033002BBB
:1017CC00F0D014E0FFF7B6FC386108E0FFF7B2FC8C
:1017DC0002463B69D31A642B01D90323ECE1534B2A
:1017EC001B6803F40033002BF0D100E000BF7B68D2
:1017FC001B6803F00203002B63D04C4B5B6803F0B7
:10180C000C03002B0BD0494B5B6803F00C03082B2B
:10181C001CD1464B5B6803F48033002B16D1434B31
:10182C001B6803F00203002B05D07B681B69012B9E
:10183C0001D00123C0E13D4B1B6823F0F8027B680B
:10184C005B69DB00394913430B603AE07B681B6929
:10185C00002B20D0364B01221A60FFF76BFC38614D
:10186C0008E0FFF767FC02463B69D31A022B01D94B
:10187C000323A1E12D4B1B6803F00203002BF0D0D6
:10188C002A4B1B6823F0F8027B685B69DB00274955
:10189C0013430B6015E0264B00221A60FFF74AFC3D
:1018AC00386108E0FFF746FC02463B69D31A022B6D
:1018BC0001D9032380E11D4B1B6803F00203002BAD
:1018CC00F0D17B681B6803F00803002B3AD07B68CF
:1018DC009B69002B19D0174B01221A60FFF72AFCC9
:1018EC00386108E0FFF726FC02463B69D31A022B4D
:1018FC0001D9032360E10D4B5B6A03F00203002B5B
:10190C00F0D0012000F09CFA1CE00A4B00221A6077
:10191C00FFF710FC38610FE0FFF70CFC02463B6947
:10192C00D31A022B08D9032346E100BF0010024052
:10193C000000424280044242924B5B6A03F0020375
:10194C00002BE9D17B681B6803F00403002B00F02B
:10195C00A6800023FB758B4BDB6903F08053002BB7
:10196C000DD1884BDB69874A43F08053D361854B9B
:10197C00DB6903F08053BB60BB680123FB75824BB2
:10198C001B6803F48073002B18D17F4B1B687E4AB5
:10199C0043F480731360FFF7CDFB386108E0FFF769
:1019AC00C9FB02463B69D31A642B01D9032303E11B
:1019BC00754B1B6803F48073002BF0D07B68DB68DD
:1019CC00012B06D16F4B1B6A6E4A43F00103136265
:1019DC002DE07B68DB68002B0CD16A4B1B6A694AD3
:1019EC0023F001031362674B1B6A664A23F004035E
:1019FC0013621CE07B68DB68052B0CD1614B1B6A06
:101A0C00604A43F0040313625E4B1B6A5D4A43F069
:101A1C00010313620BE05B4B1B6A5A4A23F0010370
:101A2C001362584B1B6A574A23F0040313627B68FA
:101A3C00DB68002B15D0FFF77DFB38610AE0FFF760
:101A4C0079FB02463B69D31A41F28832934201D9A1
:101A5C000323B1E04B4B1B6A03F00203002BEED0C7
:101A6C0014E0FFF767FB38610AE0FFF763FB0246FF
:101A7C003B69D31A41F28832934201D903239BE08C
:101A8C00404B1B6A03F00203002BEED1FB7D012BB4
:101A9C0005D13C4BDB693B4A23F08053D3617B6817
:101AAC00DB69002B00F08780364B5B6803F00C037E
:101ABC00082B61D07B68DB69022B46D1334B0022AB
:101ACC001A60FFF737FB386108E0FFF733FB02467B
:101ADC003B69D31A022B01D903236DE0294B1B68F8
:101AEC0003F00073002BF0D17B681B6AB3F5803FC9
:101AFC0008D1244B5B6823F400327B689B68214936
:101B0C0013434B601F4B5B6823F474127B68196A98
:101B1C007B685B6A0B431B4913434B601B4B0122D5
:101B2C001A60FFF707FB386108E0FFF703FB02467A
:101B3C003B69D31A022B01D903233DE0114B1B68DF
:101B4C0003F00073002BF0D035E0104B00221A602C
:101B5C00FFF7F0FA386108E0FFF7ECFA02463B6950
:101B6C00D31A022B01D9032326E0064B1B6803F082
:101B7C000073002BF0D11EE07B68DB69012B07D1D1
:101B8C00012319E000100240007000406000424246
:101B9C000B4B5B68FB60FB6803F480327B681B6A51
:101BAC009A4206D1FB6803F470127B685B6A9A4216
:101BBC0001D0012300E0002318461837BD4680BD34
:101BCC000010024080B584B000AF786039607B684B
:101BDC00002B01D10123D0E06A4B1B6803F00703F3
:101BEC003A689A4210D9674B1B6823F00702654983
:101BFC003B6813430B60634B1B6803F007033A68A5
:101C0C009A4201D00123B8E07B681B6803F0020301
:101C1C00002B20D07B681B6803F00403002B05D03D
:101C2C00594B5B68584A43F4E06353607B681B680C
:101C3C0003F00803002B05D0534B5B68524A43F466
:101C4C0060535360504B5B6823F0F0027B689B68D9
:101C5C004D4913434B607B681B6803F00103002B59
:101C6C0040D07B685B68012B07D1474B1B6803F4A2
:101C7C000033002B15D101237FE07B685B68022BBE
:101C8C0007D1414B1B6803F00073002B09D10123D2
:101C9C0073E03D4B1B6803F00203002B01D10123C1
:101CAC006BE0394B5B6823F003027B685B68364959
:101CBC0013434B60FFF73EFAF8600AE0FFF73AFA7D
:101CCC000246FB68D31A41F28832934201D90323AE
:101CDC0053E02D4B5B6803F00C027B685B689B0048
:101CEC009A42EBD1274B1B6803F007033A689A42E0
:101CFC0010D2244B1B6823F0070222493B68134384
:101D0C000B60204B1B6803F007033A689A4201D022
:101D1C00012332E07B681B6803F00403002B08D01E
:101D2C00194B5B6823F4E0627B68DB68164913434C
:101D3C004B607B681B6803F00803002B09D0124B27
:101D4C005B6823F460527B681B69DB000E4913430C
:101D5C004B6000F021F802460B4B5B681B0903F04B
:101D6C000F030A49CB5C22FA03F3094A1360094BAF
:101D7C001B681846FFF79CF9002318461037BD4620
:101D8C0080BD00BF0020024000100240B0260008B9
:101D9C00300000203400002080B487B000AF002356
:101DAC00FB600023BB6000237B6100237B6000236E
:101DBC003B611E4B5B68FB60FB6803F00C03042B60
:101DCC0002D0082B03D027E0194B3B6127E0FB68BE
:101DDC009B0C03F00F03174AD35C7B60FB6803F486
:101DEC008033002B10D0114B5B685B0C03F00103AC
:101DFC00114AD35CBB607B680D4A03FB02F2BB68E3
:101E0C00B2FBF3F37B6104E07B680C4A02FB03F347
:101E1C007B617B693B6102E0054B3B6100BF3B6929
:101E2C0018461C37BD4680BC704700BF00100240EE
:101E3C0000127A00C0260008D026000800093D00D8
:101E4C0080B485B000AF78600A4B1B680A4AA2FBCD
:101E5C0003235B0A7A6802FB03F3FB6000BFFB6899
:101E6C005A1EFA60002BF9D100BF00BF1437BD46D3
:101E7C0080BC704730000020D34D621080B582B01A
:101E8C0000AF78607B68002B01D1012341E07B68B7
:101E9C0093F83D30DBB2002B06D17B68002283F82F
:101EAC003C207868FFF76CF87B68022283F83D20B1
:101EBC007B681A687B6804331946104600F056FAA2
:101ECC007B68012283F846207B68012283F83E2040
:101EDC007B68012283F83F207B68012283F8402035
:101EEC007B68012283F841207B68012283F8422021
:101EFC007B68012283F843207B68012283F844200D
:101F0C007B68012283F845207B68012283F83D2001
:101F1C00002318460837BD4680BD000080B485B04C
:101F2C0000AF78607B6893F83D30DBB2012B01D0B9
:101F3C00012335E07B68022283F83D207B681B6817
:101F4C00DA687B681B6842F00102DA607B681B6808
:101F5C00164A934209D07B681B68B3F1804F04D0BA
:101F6C007B681B68124A934211D17B681B689B6883
:101F7C0003F00703FB60FB68062B10D07B681B6823
:101F8C001A687B681B6842F001021A6007E07B68E4
:101F9C001B681A687B681B6842F001021A600023F8
:101FAC0018461437BD4680BC704700BF002C01405A
:101FBC000004004080B584B000AF78607B681B687B
:101FCC00DB68FB607B681B681B69BB60BB6803F04C
:101FDC000203002B20D0FB6803F00203002B1BD064
:101FEC007B681B686FF002021A617B6801221A770A
:101FFC007B681B689B6903F00303002B03D0786894
:10200C0000F098F905E0786800F08BF9786800F03A
:10201C009AF97B6800221A77BB6803F00403002B43
:10202C0020D0FB6803F00403002B1BD07B681B68DB
:10203C006FF004021A617B6802221A777B681B68B6
:10204C009B6903F44073002B03D0786800F072F99D
:10205C0005E0786800F065F9786800F074F97B6841
:10206C0000221A77BB6803F00803002B20D0FB6812
:10207C0003F00803002B1BD07B681B686FF0080271
:10208C001A617B6804221A777B681B68DB6903F092
:10209C000303002B03D0786800F04CF905E0786856
:1020AC0000F03FF9786800F04EF97B6800221A774F
:1020BC00BB6803F01003002B20D0FB6803F0100367
:1020CC00002B1BD07B681B686FF010021A617B68B9
:1020DC0008221A777B681B68DB6903F44073002BBA
:1020EC0003D0786800F026F905E0786800F019F95B
:1020FC00786800F028F97B6800221A77BB6803F037
:10210C000103002B0CD0FB6803F00103002B07D05C
:10211C007B681B686FF001021A617868FEF7AAFDF4
:10212C00BB6803F08003002B0CD0FB6803F080032A
:10213C00002B07D07B681B686FF080021A617868EF
:10214C0000F06FFABB6803F04003002B0CD0FB6867
:10215C0003F04003002B07D07B681B686FF0400234
:10216C001A61786800F0F8F8BB6803F02003002BC4
:10217C000CD0FB6803F02003002B07D07B681B6896
:10218C006FF020021A61786800F042FA00BF103735
:10219C00BD4680BD80B584B000AF78603960002347
:1021AC00FB737B6893F83C30012B01D10223B4E024
:1021BC007B68012283F83C207B68022283F83D2057
:1021CC007B681B689B68BB60BB6823F07703BB60B4
:1021DC00BB6823F47F43BB607B681B68BA689A605A
:1021EC003B681B68B3F5005F3ED0B3F5005F00F2AF
:1021FC008780B3F5805F00F08680B3F5805F7FD871
:10220C00702B1AD0702B7BD8602B50D0602B77D8CA
:10221C00502B3CD0502B73D8402B58D0402B6FD820
:10222C00302B64D0302B6BD8202B60D0202B67D870
:10223C00002B5CD0102B5AD062E07B6818683B688E
:10224C0099683B685A683B68DB6800F06AF97B6800
:10225C001B689B68BB60BB6843F07703BB607B6803
:10226C001B68BA689A604FE07B6818683B6899688D
:10227C003B685A683B68DB6800F053F97B681B6865
:10228C009A687B681B6842F480429A603CE07B68E9
:10229C0018683B6859683B68DB681A4600F0CAF856
:1022AC007B681B685021184600F021F92CE07B68F4
:1022BC0018683B6859683B68DB681A4600F0E8F818
:1022CC007B681B686021184600F011F91CE07B68E4
:1022DC0018683B6859683B68DB681A4600F0AAF836
:1022EC007B681B684021184600F001F90CE07B6804
:1022FC001A683B681B681946104600F0F8F803E0B2
:10230C000123FB7300E000BF7B68012283F83D20B2
:10231C007B68002283F83C20FB7B18461037BD46B7
:10232C0080BD80B483B000AF786000BF0C37BD4671
:10233C0080BC704780B483B000AF786000BF0C37AE
:10234C00BD4680BC704780B483B000AF786000BFDE
:10235C000C37BD4680BC704780B483B000AF78604A
:10236C0000BF0C37BD4680BC7047000080B485B000
:10237C0000AF786039607B681B68FB607B682B4A18
:10238C00934207D07B68B3F1804F03D07B68284A17
:10239C00934208D1FB6823F07003FB603B685B68D9
:1023AC00FA681343FB607B68204A934207D07B6832
:1023BC00B3F1804F03D07B681D4A934208D1FB6870
:1023CC0023F44073FB603B68DB68FA681343FB60E3
:1023DC00FB6823F080023B685B691343FB607B68FE
:1023EC00FA681A603B689A687B68DA623B681A681C
:1023FC007B689A627B680D4A934203D13B681A69E9
:10240C007B681A637B6801225A617B681B6903F045
:10241C000103002B05D07B681B6923F001027B684C
:10242C001A6100BF1437BD4680BC7047002C0140B8
:10243C000004004080B487B000AFF860B9607A60E7
:10244C00FB681B6A7B61FB681B6A23F00102FB685B
:10245C001A62FB689B693B613B6923F0F0033B61AB
:10246C007B681B013A6913433B617B6923F00A03C8
:10247C007B617A69BB6813437B61FB683A699A613B
:10248C00FB687A691A6200BF1C37BD4680BC704776
:10249C0080B487B000AFF860B9607A60FB681B6AE3
:1024AC007B61FB681B6A23F01002FB681A62FB68F5
:1024BC009B693B613B6923F470433B617B681B0365
:1024CC003A6913433B617B6923F0A0037B61BB68D2
:1024DC001B017A6913437B61FB683A699A61FB685B
:1024EC007A691A6200BF1C37BD4680BC704780B445
:1024FC0085B000AF786039607B689B68FB60FB68D7
:10250C0023F07003FB603A68FB68134343F0070346
:10251C00FB607B68FA689A6000BF1437BD4680BCCC
:10252C00704780B487B000AFF860B9607A603B60E8
:10253C00FB689B687B617B6923F47F437B613B6811
:10254C001A027B681A43BB6813437A6913437B6195
:10255C00FB687A699A6000BF1C37BD4680BC704727
:10256C0080B485B000AF786039607B6893F83C30FC
:10257C00012B01D1022341E07B68012283F83C202E
:10258C007B68022283F83D207B681B685B68FB60DC
:10259C007B681B689B68BB60FB6823F07003FB6067
:1025AC003B681B68FA681343FB607B681B68FA681E
:1025BC005A607B681B68144A934209D07B681B687D
:1025CC00B3F1804F04D07B681B68104A93420CD146
:1025DC00BB6823F08003BB603B685B68BA6813433D
:1025EC00BB607B681B68BA689A607B68012283F8C1
:1025FC003D207B68002283F83C20002318461437CA
:10260C00BD4680BC704700BF002C01400004004058
:10261C0080B483B000AF786000BF0C37BD4680BC7F
:10262C00704780B483B000AF786000BF0C37BD46F4
:10263C0080BC704703460244934200D1704703F8B4
:10264C00011BF9E770B500260C4D0D4C641BA41052
:10265C00A64209D100F01AF800260A4D0A4C641B58
:10266C00A410A64205D170BD55F8043B984701361D
:10267C00EEE755F8043B98470136F2E7D4260008FC
:10268C00D4260008D4260008D8260008F8B500BFC8
:10269C00F8BC08BC9E467047F8B500BFF8BC08BC37
:0426AC009E4670478F
:1026B00000000000000000000102030406070809F2
:1026C00002030405060708090A0B0C0D0E0F101073
:0426D0000102000003
:0426D40031010008C8
:0426D8000D010008E8
:1026DC0001000000020000000300000004000000E4
:1026EC000F000000080000003200000000FCFE3368
:1026FC0033FEFC00C0F9A4B0999282F880900000DF
:0C270C0000127A00100000000100000024
:04000005080010459A
:00000001FF
