:020000040800F2
:1000000000280020DD110008250E00082B0E000836
:10001000310E0008370E00083D0E000800000000F9
:10002000000000000000000000000000430E000877
:100030004F0E0008000000005B0E0008670E00086D
:1000400025120008251200082512000825120008B4
:1000500025120008251200082512000825120008A4
:100060002512000825120008251200082512000894
:100070002512000825120008251200082512000884
:100080002512000825120008251200082512000874
:100090002512000825120008251200082512000864
:1000A0002512000825120008251200082512000854
:1000B000750E000825120008000000002512000837
:1000C00025120008000000000000000025120008B2
:1000D00000000000251200082512000800000000A2
:1000E0002512000825120008251200080000000053
:1000F0000000000000000000000000000000000000
:0C01000000000000000000005FF808F1A3
:10010C0010B5054C237833B9044B13B10448AFF345
:10011C0000800123237010BD480000200000000067
:10012C005C28000808B5034B1BB103490348AFF327
:10013C00008008BD000000004C0000205C28000876
:10014C0080B582B000AF7860354A7B6813441B7869
:10015C0003F00103DBB21A464FF40071314801F091
:10016C0060FB2F4A7B6813441B785B08DBB203F0FF
:10017C000103DBB21A464FF480612A4801F051FBAF
:10018C00274A7B6813441B789B08DBB203F00103FE
:10019C00DBB21A464FF40061224801F042FB204AC0
:1001AC007B6813441B78DB08DBB203F00103DBB282
:1001BC001A464FF480511B4801F033FB184A7B68F8
:1001CC0013441B781B09DBB203F00103DBB21A46A4
:1001DC004FF40051134801F024FB114A7B6813447F
:1001EC001B785B09DBB203F00103DBB21A464FF458
:1001FC0080410C4801F015FB094A7B6813441B78BD
:10020C009B09DBB203F00103DBB21A464FF4004149
:10021C00044801F006FB00BF0837BD4680BD00BF97
:10022C00000000200008014080B582B000AF78606B
:10023C00324A7B6813441B7803F00103DBB21A4685
:10024C0008212F4801F0EDFA2C4A7B6813441B78E7
:10025C005B08DBB203F00103DBB21A46102128481D
:10026C0001F0DFFA254A7B6813441B789B08DBB24C
:10027C0003F00103DBB21A462021214801F0D1FA28
:10028C001E4A7B6813441B78DB08DBB203F00103C6
:10029C00DBB21A4640211A4801F0C3FA174A7B68B0
:1002AC0013441B781B09DBB203F00103DBB21A46C3
:1002BC008021134801F0B5FA104A7B6813441B786F
:1002CC005B09DBB203F00103DBB21A464FF4807119
:1002DC000B4801F0A6FA094A7B6813441B789B096A
:1002EC00DBB203F00103DBB21A464FF40071044891
:1002FC0001F097FA00BF0837BD4680BD0000002012
:10030C00000C014080B584B000AFF860B9607A6031
:10031C00FB68002B03D0FB68012B2FD067E0002279
:10032C004FF48041344801F07CFA01224FF4004133
:10033C00314801F076FA314B1B68314A82FB0312CB
:10034C009210DB17D31A1846FFF7FAFE00224FF46F
:10035C008051294801F065FA01224FF400512648DA
:10036C0001F05FFA274B1B68254A82FB031292109F
:10037C00DB17D31A1846FFF757FF38E001224FF46A
:10038C0080411D4801F04DFA00224FF400411A48FB
:10039C0001F047FA194B1A68194B83FB0213991099
:1003AC00D317C91A0B469B000B445B00D11A0846A5
:1003BC00FFF7C6FE01224FF480510F4801F031FACD
:1003CC0000224FF400510C4801F02BFA0D4B1A6827
:1003DC000B4B83FB02139910D317C91A0B469B00C6
:1003EC000B445B00D11A0846FFF71EFF00BF00BF8D
:1003FC001037BD4680BD00BF000C0140A40000209A
:10040C0067666666A800002080B483B000AF786091
:10041C00094A7B6852F82330012B06D1064A7B68C7
:10042C00002142F82310012300E0002318460C376A
:10043C00BD4680BC704700BF6400002080B483B010
:10044C0000AF7860044A7B68012142F8231000BF9A
:10045C000C37BD4680BC70476400002080B582B06C
:10046C0000AF00237B6084E0464A7B6852F823206F
:10047C0045497B6841F82320444A7B6852F8232085
:10048C0040497B6841F823207B68002B0AD101216D
:10049C003F4801F0AFF9034619463C4A7B6842F8E5
:1004AC0023101AE07B68012B0AD10221384801F095
:1004BC00A1F903461946354A7B6842F823100CE033
:1004CC007B68022B09D10421314801F093F90346D2
:1004DC0019462E4A7B6842F823102B4A7B6852F847
:1004EC00232028497B6851F823309A423ED1254A73
:1004FC007B6852F8232025497B6851F823309A42B7
:10050C0034D1224A7B6852F8232022497B6851F867
:10051C0023309A4216D01D4A7B6852F823201D497D
:10052C007B6841F82320194A7B6852F82330002B52
:10053C001CD1194A7B68C82142F823107868FFF750
:10054C007DFF13E0144A7B6852F823305A1E12497F
:10055C007B6841F82320104A7B6852F82330002B2B
:10056C0004D10C4A7B68012142F823107B680133CB
:10057C007B607B68022B7FF777AF00BF00BF08372B
:10058C00BD4680BD24000020180000200C00002077
:10059C00000C0140300000207000002080B500AF3E
:1005AC008F4B1B68042B00F2A78101A252F823F099
:1005BC00D1050008310600089B0600084307000817
:1005CC0025080008874B1B68874A1168874A126800
:1005DC001846FFF797FE4FF4FA7000F055FC844B69
:1005EC001B68844A1360844B1B68844A1360844BD9
:1005FC001B68844A1360844B00221A60834B0022D0
:10060C001A60834B00221A60754B01221A60754BDD
:10061C001B680133002B03F00103B8BF5B42714A26
:10062C00136072E100F092F97A4B1B68012B16D122
:10063C006C4B1B686C4A11686C4A12681846FFF7C1
:10064C0061FE684B1B680133002B03F00103B8BF3C
:10065C005B42644A13604FF4FA7000F015FC002002
:10066C00FFF7D2FE0346012B40F048815E4B02227D
:10067C001A60604B1B685D4A1360594B02221A606A
:10068C0000F098FC4FF4FA7000F0FEFB36E1614B81
:10069C001B68012B18D1534B1B68534A1168534AE2
:1006AC0012681846FFF72EFE4E4B1B680133002BC9
:1006BC0003F00103B8BF5B424A4A136000F022FD0D
:1006CC004FF4FA7000F0E0FB0020FFF79DFE0346AC
:1006DC00012B0FD1444B03221A60484B1B68434A31
:1006EC0013603F4B03221A6000F064FC4FF4FA7065
:1006FC0000F002FC0120FFF787FE0346012B0FD10F
:10070C003C4B1B68632B02DD3A4B01221A60394BC0
:10071C001B680133374A1360364B1B68334A13602E
:10072C000220FFF771FE0346012B40F0E980364BA7
:10073C0001221A60E4E0374B1B68012B18D1294BBE
:10074C001B68294A1168294A12681846FFF7DAFD16
:10075C00244B1B680133002B03F00103B8BF5B4231
:10076C00204A136000F0F0FC4FF4FA7000F08CFBA0
:10077C000020FFF749FE0346012B0FD11A4B042230
:10078C001A60204B1B68194A1360154B04221A601F
:10079C0000F010FC4FF4FA7000F0AEFB0120FFF7F4
:1007AC0033FE0346012B0FD1144B1B68632B02DD68
:1007BC00124B01221A60114B1B6801330F4A136054
:1007CC000E4B1B68094A13600220FFF71DFE0346FF
:1007DC00012B40F097800D4B01221A6092E000BF74
:1007EC00AC0000207C000020A4000020A800002009
:1007FC0098000020800000209C0000208800002031
:10080C00A000002090000020840000208C0000201C
:10081C0094000020000100203D4B1B68012B18D1D7
:10082C003C4B1B683C4A11683C4A12681846FFF75F
:10083C0069FD384B1B680133002B03F00103B8BF73
:10084C005B42344A136000F0A1FC4FF4FA7000F0E4
:10085C001BFB0020FFF7D8FD0346012B2CD1304B9E
:10086C001A68304B1B681A442F4B1B689A4217D1DD
:10087C002E4B1B68012B03D12B4B1B682C4A13608E
:10088C002C4B1B68012B03D1264B1B682A4A136087
:10089C002A4B1B68012B03D1214B1B68284A136080
:1008AC00284B00221A60284B00221A6000F082FBB1
:1008BC004FF4FA7000F020FB0120FFF7A5FD034672
:1008CC00012B0FD1164B1B68632B02DD144B01223D
:1008DC001A60134B1B680133114A1360104B1B68D1
:1008EC000E4A13600220FFF78FFD0346012B0BD13C
:1008FC00124B01221A6007E000BF06E000BF04E0C3
:10090C0000BF02E000BF00E000BF00BF80BD00BF21
:10091C00000100207C000020A4000020A800002082
:10092C00900000208800002080000020840000201F
:10093C00980000208C0000209C00002094000020D7
:10094C00A0000020B0000020AC00002080B500AF5B
:10095C00664B1B68042B00F2BE8001A252F823F0F8
:10096C0081090008AD090008F30900084B0A0008CA
:10097C008F0A00084FF47A7000F0A2FA5C4B1B68E7
:10098C005C4A13605C4B1B685C4A136000F036FBDE
:10099C0000F0A2FB554B1B680133544A1360A3E0D3
:1009AC00574B1B68012B0DD1524B1B68013B514A15
:1009BC001360524B1B68013B504A13604FF47A7022
:1009CC0000F07EFA4D4B1B68002B40F086804D4B9F
:1009DC001B684A4A136000F069FB444B1B680133E7
:1009EC00424A136079E0464B1B68012B0DD1414BF9
:1009FC001B68013B3F4A1360404B1B68013B3F4A5D
:100A0C0013604FF47A7000F05BFA3A4B1B68002BC2
:100A1C0065D13A4B1B68002B61D1374B1B68354AAB
:100A2C001360334B1B68354A136000F013FB00F066
:100A3C0027FB2E4B1B6801332C4A13604FE0304BC5
:100A4C001B68012B0DD12B4B1B68013B294A1360F2
:100A5C002A4B1B68013B294A13604FF47A7000F053
:100A6C002FFA244B1B68002B3BD1264B1B68214AC9
:100A7C00136000F0D9FA1D4B1B6801331B4A13603D
:100A8C002FE01F4B1B68012B0DD11A4B1B68013B30
:100A9C00184A1360194B1B68013B184A13604FF43A
:100AAC007A7000F00DFA134B1B68002B1BD1134B03
:100ABC001B68002B17D10E4B1B680E4A13600E4B94
:100ACC001B680E4A136000F099FA00F005FB074B07
:100ADC0000221A6007E000BF06E000BF04E000BF80
:100AEC0002E000BF00E000BF00BF80BDB0000020EE
:100AFC0098000020A4000020A0000020A8000020E6
:100B0C00080100209C00002080B400AF0A4B052295
:100B1C001A600A4B02221A60094B03221A60064B18
:100B2C001B68084A1360064B1B68074A136000BF1A
:100B3C00BD4680BC704700BF980000209C00002080
:100B4C00A0000020A4000020A800002080B500AF69
:100B5C0000F064FB00F01AF800F0A0F800F052F876
:100B6C00034801F0BDFAFFF7CFFFFFF717FDFCE7D5
:100B7C00B400002080B582B000AF786000F0D8F9E6
:100B8C00FFF76CFC00BF0837BD4680BD80B590B048
:100B9C0000AF07F1180328220021184601F02CFEA3
:100BAC003B1D00221A605A609A60DA601A610223B7
:100BBC00BB610123BB621023FB6200237B6307F143
:100BCC001803184600F05EFE0346002B01D000F01F
:100BDC00C7F80F237B600023BB600023FB6000235E
:100BEC003B6100237B613B1D0021184601F0CCF8D2
:100BFC000346002B01D000F0B3F800BF4037BD46D0
:100C0C0080BD000080B586B000AF07F1080300225C
:100C1C001A605A609A60DA603B4600221A605A6089
:100C2C001D4B4FF080421A601B4B41F63F725A60CD
:100C3C00194B00229A60184B0922DA60164B0022DD
:100C4C001A61154B00229A61134801F0F9F9034619
:100C5C00002B01D000F084F84FF48053BB6007F1F7
:100C6C00080319460C4801F077FB0346002B01D012
:100C7C0000F076F800233B6000237B603B4619466E
:100C8C00054801F04FFD0346002B01D000F068F839
:100C9C0000BF1837BD4680BDB400002080B586B0BB
:100CAC0000AF07F1080300221A605A609A60DA60FC
:100CBC00284B9B69274A43F004039361254B9B699E
:100CCC0003F004037B607B68224B9B69214A43F051
:100CDC00080393611F4B9B6903F008033B603B685F
:100CEC0000224FF63F611C4800F09BFD00224FF2A2
:100CFC00F8311A4800F095FD4FF63F63BB600123B5
:100D0C00FB6000233B6102237B6107F1080319465A
:100D1C00114800F0F3FB0723BB600023FB600023AA
:100D2C003B6107F1080319460C4800F0E7FB4FF252
:100D3C00F833BB600123FB6000233B6102237B6122
:100D4C0007F108031946054800F0D8FB00BF183717
:100D5C00BD4680BD0010024000080140000C01405F
:100D6C0080B400AF72B600BFFEE7000080B485B05F
:100D7C0000AF154B9B69144A43F001039361124B6E
:100D8C009B6903F00103BB60BB680F4BDB690E4A28
:100D9C0043F08053D3610C4BDB6903F080537B60D1
:100DAC007B680A4B5B68FB60FB6823F0E063FB60CD
:100DBC00FB6843F08063FB60044AFB68536000BF30
:100DCC001437BD4680BC7047001002400000014043
:100DDC0080B584B000AF78607B681B68B3F1804F3E
:100DEC0013D10C4BDB690B4A43F00103D361094B64
:100DFC00DB6903F00103FB60FB68002200211C206F
:100E0C0000F045FB1C2000F05EFB00BF1037BD4618
:100E1C0080BD00BF0010024080B400AFFEE780B47C
:100E2C0000AFFEE780B400AFFEE780B400AFFEE792
:100E3C0080B400AFFEE780B400AF00BFBD4680BCFD
:100E4C00704780B400AF00BFBD4680BC704780B413
:100E5C0000AF00BFBD4680BC704780B500AF00F04E
:100E6C0023FA00BF80BD000080B500AF024801F03E
:100E7C0083F900BF80BD00BFB400002080B400AF78
:100E8C0000BFBD4680BC704780B483B000AF7860B3
:100E9C007B68084A82FB03129210DB17D31A064AAE
:100EAC001360064B00221A6000BF0C37BD4680BC95
:100EBC00704700BF67666666FC00002000010020DA
:100ECC0080B483B000AF78607B68084A82FB031261
:100EDC009210DB17D31A064A1360064B00221A60D5
:100EEC0000BF0C37BD4680BC704700BF67666666A6
:100EFC00040100200801002080B483B000AF7860AA
:100F0C007B68084A82FB03129210DB17D31A064A3D
:100F1C001360064B00221A6000BF0C37BD4680BC24
:100F2C00704700BF676666660C0100201001002048
:100F3C0080B400AF194B1B68002B0BDD174B1B68E3
:100F4C00013B164A1360154B1B68002B02D1144B46
:100F5C0001221A60134B1B68002B0BDD114B1B6815
:100F6C00013B104A13600F4B1B68002B02D10E4B38
:100F7C0001221A600D4B1B68002B0BDD0B4B1B6801
:100F8C00013B0A4A1360094B1B68002B02D1084B2A
:100F9C0001221A6000BFBD4680BC7047FC000020D7
:100FAC000001002004010020080100200C01002099
:100FBC001001002080B500AF012201210E4800F085
:100FCC0030FC012202210C4800F02BFC01220421F0
:100FDC00094800F026FC01220821074800F021FCFA
:100FEC0001221021044800F01CFC0122202102489F
:100FFC0000F017FC00BF80BD0008014080B500AFB9
:10100C0000220121074800F00CFC012202210548B6
:10101C0000F007FC01220421024800F002FC00BF92
:10102C0080BD00BF0008014080B500AF0122012146
:10103C00074800F0F6FB00220221054800F0F1FB06
:10104C0001220421024800F0ECFB00BF80BD00BF70
:10105C000008014080B500AF01220121074800F0D3
:10106C00E0FB01220221054800F0DBFB00220421F9
:10107C00024800F0D6FB00BF80BD00BF0008014055
:10108C0080B500AF00220821074800F0CAFB0122FE
:10109C001021054800F0C5FB01222021024800F078
:1010AC00C0FB00BF80BD00BF0008014080B500AF91
:1010BC0001220821074800F0B4FB0022102105484A
:1010CC0000F0AFFB01222021024800F0AAFB00BF78
:1010DC0080BD00BF0008014080B500AF012208218F
:1010EC00074800F09EFB01221021054800F099FBF7
:1010FC0000222021024800F094FB00BF80BD00BFFD
:10110C000008014080B500AF01210E4800F0A1FBA2
:10111C00012202210B4800F084FB01220421094822
:10112C0000F07FFB0821074800F093FB01221021FF
:10113C00044800F076FB01222021024800F071FBEC
:10114C0000BF80BD0008014080B500AF0122012125
:10115C000D4800F066FB02210B4800F07AFB0122DF
:10116C000421094800F05DFB01220821064800F02B
:10117C0058FB1021044800F06CFB0122202102488E
:10118C0000F04FFB00BF80BD0008014080B500AFF0
:10119C00012201210D4800F044FB012202210B48E1
:1011AC0000F03FFB0421094800F053FB0122082109
:1011BC00064800F036FB01221021044800F031FBF8
:1011CC002021024800F045FB00BF80BD0008014013
:1011DC00FFF754FE0B480C490C4A002302E0D4588C
:1011EC00C4500433C4188C42F9D3094A094C002367
:1011FC0001E013600432A242FBD301F005FBFFF7C0
:10120C00A5FC70470000002048000020A028000822
:10121C004800002018010020FEE7000080B500AF58
:10122C00084B1B68074A43F010031360032000F0BF
:10123C0023F90F2000F008F8FFF798FD002318465B
:10124C0080BD00BF0020024080B582B000AF786046
:10125C00124B1A68124B1B7819464FF47A73B3FB76
:10126C00F1F3B2FBF3F3184600F03BF90346002B05
:10127C0001D001230EE07B680F2B0AD8002279687D
:10128C004FF0FF3000F003F9064A7B68136000232F
:10129C0000E0012318460837BD4680BD3C00002005
:1012AC00440000204000002080B400AF054B1B78A8
:1012BC001A46054B1B681344034A136000BFBD4616
:1012CC0080BC7047440000201401002080B400AFA3
:1012DC00024B1B681846BD4680BC704714010020A9
:1012EC0080B485B000AF78607B6803F00703FB60C7
:1012FC000C4BDB68BB60BA684FF6FF031340BB6056
:10130C00FB681A02BB68134343F0BF6343F400331A
:10131C00BB60044ABB68D36000BF1437BD4680BCB9
:10132C00704700BF00ED00E080B400AF044BDB68F9
:10133C001B0A03F007031846BD4680BC704700BF6C
:10134C0000ED00E080B483B000AF0346FB7197F969
:10135C000730002B0BDBFB7903F01F02064997F9D2
:10136C0007305B09012000FA02F241F8232000BF8C
:10137C000C37BD4680BC704700E100E080B483B000
:10138C0000AF03463960FB7197F90730002B0ADB7D
:10139C003B68DAB20C4997F907301201D2B20B4410
:1013AC0083F800230AE03B68DAB20849FB7903F0C2
:1013BC000F03043B1201D2B20B441A7600BF0C3758
:1013CC00BD4680BC704700BF00E100E000ED00E0CE
:1013DC0080B489B000AFF860B9607A60FB6803F044
:1013EC000703FB61FB69C3F10703042B28BF04232C
:1013FC00BB61FB690433062B02D9FB69033B00E09C
:10140C0000237B614FF0FF32BB6902FA03F3DA432E
:10141C00BB681A407B699A404FF0FF317B6901FA37
:10142C0003F3D9437B680B40134318462437BD465E
:10143C0080BC704780B582B000AF78607B68013BA0
:10144C00B3F1807F01D301230FE00A4A7B68013B93
:10145C0053600F214FF0FF30FFF790FF054B002238
:10146C009A60044B07221A60002318460837BD46C1
:10147C0080BD00BF10E000E080B582B000AF7860A6
:10148C007868FFF72DFF00BF0837BD4680BD80B5DB
:10149C0086B000AF0346B9607A60FB7300237B61B2
:1014AC00FFF742FF78617A68B9687869FFF790FFB7
:1014BC00024697F90F3011461846FFF75FFF00BF41
:1014CC001837BD4680BD80B582B000AF0346FB71B6
:1014DC0097F907301846FFF735FF00BF0837BD46B0
:1014EC0080BD80B582B000AF78607868FFF7A2FF4E
:1014FC00034618460837BD4680BD000080B48BB04B
:10150C0000AF7860396000237B6200233B6261E1AD
:10151C0001227B6A02FA03F3FB613B681B68FA69E0
:10152C001340BB61BA69FB699A4240F050813B6839
:10153C005B68974A93425ED0954A934275D8954A18
:10154C00934258D0934A93426FD8934A934252D0C5
:10155C00914A934269D8914A93424CD08F4A934214
:10156C0063D88F4A934246D08D4A93425DD8122B52
:10157C002AD8122B59D801A252F823F003160008CE
:10158C00DD150008EF1500083116000837160008A5
:10159C0037160008371600083716000837160008EB
:1015AC0037160008371600083716000837160008DB
:1015BC0037160008371600083716000837160008CB
:1015CC00E5150008F9150008764A934213D02CE073
:1015DC003B68DB683B6229E03B68DB6804333B62B9
:1015EC0024E03B68DB6808333B621FE03B68DB6848
:1015FC000C333B621AE03B689B68002B02D104233E
:10160C003B6213E03B689B68012B05D108233B62CE
:10161C007B68FA691A6109E008233B627B68FA6906
:10162C005A6103E000233B6200E000BFBB69FF2B63
:10163C0001D87B6801E07B6804337B61BB69FF2BBD
:10164C0002D87B6A9B0002E07B6A083B9B003B61F3
:10165C007B691A680F213B6901FA03F3DB431A40DB
:10166C00396A3B6901FA03F31A437B691A603B68D8
:10167C005B6803F08053002B00F0A9804A4B9B69F8
:10168C00494A43F001039361474B9B6903F0010303
:10169C00BB60BB68454A7B6A9B08023352F8233017
:1016AC00FB607B6A03F003039B000F2202FA03F337
:1016BC00DB43FA681340FB607B683D4A93420DD0D4
:1016CC007B683C4A934207D07B683B4A934201D1EA
:1016DC00022304E0032302E0012300E000237A6AE2
:1016EC0002F0030292009340FA681343FB602F4907
:1016FC007B6A9B080233FA6841F823203B685B68DD
:10170C0003F48013002B06D02C4B9A682B49BB6931
:10171C0013438B6006E0294B9A68BB69DB4327496E
:10172C0013408B603B685B6803F40013002B06D0FE
:10173C00224BDA682149BB691343CB6006E01F4B8F
:10174C00DA68BB69DB431D491340CB603B685B68BF
:10175C0003F40033002B06D0184B5A681749BB69A9
:10176C0013434B6006E0154B5A68BB69DB431349C6
:10177C0013404B603B685B6803F48033002B1FD035
:10178C000E4B1A680D49BB6913430B601FE000BF79
:10179C000000321000003110000022100000211057
:1017AC000000121000001110001002400000014057
:1017BC0000080140000C01400010014000040140F1
:1017CC000B4B1A68BB69DB43094913400B607B6AFE
:1017DC0001337B623B681A687B6A22FA03F3002BA5
:1017EC007FF496AE00BF00BF2C37BD4680BC70475F
:1017FC000004014080B485B000AF78600B467B805C
:10180C007B689A687B881340002B02D00123FB7302
:10181C0001E00023FB73FB7B18461437BD4680BCEC
:10182C00704780B483B000AF78600B467B80134662
:10183C007B707B78002B03D07A887B681A6103E07D
:10184C007B881A047B681A6100BF0C37BD4680BCCC
:10185C00704780B485B000AF78600B467B807B68A6
:10186C00DB68FB607A88FB6813401A04FB68D94379
:10187C007B880B401A437B681A6100BF1437BD4646
:10188C0080BC704780B586B000AF78607B68002B59
:10189C0001D1012372E27B681B6803F00103002B6A
:1018AC0000F08780924B5B6803F00C03042B0CD088
:1018BC008F4B5B6803F00C03082B12D18C4B5B68CD
:1018CC0003F48033B3F5803F0BD1894B1B6803F4D1
:1018DC000033002B6CD07B685B68002B68D1012334
:1018EC004CE27B685B68B3F5803F06D1804B1B688C
:1018FC007F4A43F4803313602EE07B685B68002BD7
:10190C000CD17B4B1B687A4A23F480331360784BE1
:10191C001B68774A23F4802313601DE07B685B68A7
:10192C00B3F5A02F0CD1724B1B68714A43F4802382
:10193C0013606F4B1B686E4A43F4803313600BE0EB
:10194C006B4B1B686A4A23F480331360684B1B682B
:10195C00674A23F4802313607B685B68002B13D0E9
:10196C00FFF7B4FC386108E0FFF7B0FC02463B69B6
:10197C00D31A642B01D9032300E25D4B1B6803F4DB
:10198C000033002BF0D014E0FFF7A0FC386108E026
:10199C00FFF79CFC02463B69D31A642B01D9032345
:1019AC00ECE1534B1B6803F40033002BF0D100E047
:1019BC0000BF7B681B6803F00203002B63D04C4B09
:1019CC005B6803F00C03002B0BD0494B5B6803F0F6
:1019DC000C03082B1CD1464B5B6803F48033002BA3
:1019EC0016D1434B1B6803F00203002B05D07B6818
:1019FC001B69012B01D00123C0E13D4B1B6823F077
:101A0C00F8027B685B69DB00394913430B603AE0F1
:101A1C007B681B69002B20D0364B01221A60FFF724
:101A2C0055FC386108E0FFF751FC02463B69D31ABC
:101A3C00022B01D90323A1E12D4B1B6803F00203F8
:101A4C00002BF0D02A4B1B6823F0F8027B685B69F3
:101A5C00DB00274913430B6015E0264B00221A606C
:101A6C00FFF734FC386108E0FFF730FC02463B69B5
:101A7C00D31A022B01D9032380E11D4B1B6803F001
:101A8C000203002BF0D17B681B6803F00803002BCA
:101A9C003AD07B689B69002B19D0174B01221A6036
:101AAC00FFF714FC386108E0FFF710FC02463B69B5
:101ABC00D31A022B01D9032360E10D4B5B6A03F0AF
:101ACC000203002BF0D0012000F09CFA1CE00A4B22
:101ADC0000221A60FFF7FAFB38610FE0FFF7F6FB04
:101AEC0002463B69D31A022B08D9032346E100BFF7
:101AFC00001002400000424280044242924B5B6A5A
:101B0C0003F00203002BE9D17B681B6803F004038C
:101B1C00002B00F0A6800023FB758B4BDB6903F0D8
:101B2C008053002B0DD1884BDB69874A43F08053DF
:101B3C00D361854BDB6903F08053BB60BB68012329
:101B4C00FB75824B1B6803F48073002B18D17F4B01
:101B5C001B687E4A43F480731360FFF7B7FB386150
:101B6C0008E0FFF7B3FB02463B69D31A642B01D99B
:101B7C00032303E1754B1B6803F48073002BF0D037
:101B8C007B68DB68012B06D16F4B1B6A6E4A43F0F6
:101B9C00010313622DE07B68DB68002B0CD16A4BD0
:101BAC001B6A694A23F001031362674B1B6A664A7E
:101BBC0023F0040313621CE07B68DB68052B0CD15B
:101BCC00614B1B6A604A43F0040313625E4B1B6A51
:101BDC005D4A43F0010313620BE05B4B1B6A5A4AEC
:101BEC0023F001031362584B1B6A574A23F004037A
:101BFC0013627B68DB68002B15D0FFF767FB38613D
:101C0C000AE0FFF763FB02463B69D31A41F28832C4
:101C1C00934201D90323B1E04B4B1B6A03F002033F
:101C2C00002BEED014E0FFF751FB38610AE0FFF710
:101C3C004DFB02463B69D31A41F28832934201D9DB
:101C4C0003239BE0404B1B6A03F00203002BEED1F5
:101C5C00FB7D012B05D13C4BDB693B4A23F08053C8
:101C6C00D3617B68DB69002B00F08780364B5B68A7
:101C7C0003F00C03082B61D07B68DB69022B46D187
:101C8C00334B00221A60FFF721FB386108E0FFF7A5
:101C9C001DFB02463B69D31A022B01D903236DE0CD
:101CAC00294B1B6803F00073002BF0D17B681B6A77
:101CBC00B3F5803F08D1244B5B6823F400327B687A
:101CCC009B68214913434B601F4B5B6823F47412D0
:101CDC007B68196A7B685B6A0B431B4913434B6037
:101CEC001B4B01221A60FFF7F1FA386108E0FFF78D
:101CFC00EDFA02463B69D31A022B01D903233DE0CE
:101D0C00114B1B6803F00073002BF0D035E0104B27
:101D1C0000221A60FFF7DAFA386108E0FFF7D6FA0A
:101D2C0002463B69D31A022B01D9032326E0064B4A
:101D3C001B6803F00073002BF0D11EE07B68DB699D
:101D4C00012B07D1012319E0001002400070004064
:101D5C00600042420B4B5B68FB60FB6803F4803213
:101D6C007B681B6A9A4206D1FB6803F470127B688D
:101D7C005B6A9A4201D0012300E000231846183711
:101D8C00BD4680BD0010024080B584B000AF7860C5
:101D9C0039607B68002B01D10123D0E06A4B1B68B2
:101DAC0003F007033A689A4210D9674B1B6823F07B
:101DBC00070265493B6813430B60634B1B6803F0D8
:101DCC0007033A689A4201D00123B8E07B681B688C
:101DDC0003F00203002B20D07B681B6803F0040384
:101DEC00002B05D0594B5B68584A43F4E0635360B1
:101DFC007B681B6803F00803002B05D0534B5B6812
:101E0C00524A43F460535360504B5B6823F0F0022A
:101E1C007B689B684D4913434B607B681B6803F0E0
:101E2C000103002B40D07B685B68012B07D1474B2B
:101E3C001B6803F40033002B15D101237FE07B6872
:101E4C005B68022B07D1414B1B6803F00073002B1E
:101E5C0009D1012373E03D4B1B6803F00203002BF7
:101E6C0001D101236BE0394B5B6823F003027B68E3
:101E7C005B68364913434B60FFF728FAF8600AE0B9
:101E8C00FFF724FA0246FB68D31A41F288329342D8
:101E9C0001D9032353E02D4B5B6803F00C027B68E4
:101EAC005B689B009A42EBD1274B1B6803F007033E
:101EBC003A689A4210D2244B1B6823F0070222493D
:101ECC003B6813430B60204B1B6803F007033A6815
:101EDC009A4201D0012332E07B681B6803F00403B3
:101EEC00002B08D0194B5B6823F4E0627B68DB683D
:101EFC00164913434B607B681B6803F00803002BE7
:101F0C0009D0124B5B6823F460527B681B69DB00C1
:101F1C000E4913434B6000F021F802460B4B5B68F3
:101F2C001B0903F00F030A49CB5C22FA03F3094A9D
:101F3C001360094B1B681846FFF786F900231846F7
:101F4C001037BD4680BD00BF00200240001002408B
:101F5C00742800083C0000204000002080B487B0AA
:101F6C0000AF0023FB600023BB6000237B610023D8
:101F7C007B6000233B611E4B5B68FB60FB6803F0DE
:101F8C000C03042B02D0082B03D027E0194B3B6128
:101F9C0027E0FB689B0C03F00F03174AD35C7B60B4
:101FAC00FB6803F48033002B10D0114B5B685B0C87
:101FBC0003F00103114AD35CBB607B680D4A03FB41
:101FCC0002F2BB68B2FBF3F37B6104E07B680C4A62
:101FDC0002FB03F37B617B693B6102E0054B3B61D8
:101FEC0000BF3B6918461C37BD4680BC704700BF1C
:101FFC000010024000127A0084280008942800087F
:10200C0000093D0080B485B000AF78600A4B1B68B6
:10201C000A4AA2FB03235B0A7A6802FB03F3FB6008
:10202C0000BFFB685A1EFA60002BF9D100BF00BF3D
:10203C001437BD4680BC70473C000020D34D621065
:10204C0080B582B000AF78607B68002B01D1012392
:10205C0041E07B6893F83D30DBB2002B06D17B6806
:10206C00002283F83C207868FEF7B2FE7B680222DF
:10207C0083F83D207B681A687B6804331946104648
:10208C0000F056FA7B68012283F846207B68012217
:10209C0083F83E207B68012283F83F207B68012275
:1020AC0083F840207B68012283F841207B68012261
:1020BC0083F842207B68012283F843207B6801224D
:1020CC0083F844207B68012283F845207B68012239
:1020DC0083F83D20002318460837BD4680BD00001C
:1020EC0080B485B000AF78607B6893F83D30DBB28C
:1020FC00012B01D0012335E07B68022283F83D20BF
:10210C007B681B68DA687B681B6842F00102DA6046
:10211C007B681B68164A934209D07B681B68B3F135
:10212C00804F04D07B681B68124A934211D17B68A4
:10213C001B689B6803F00703FB60FB68062B10D041
:10214C007B681B681A687B681B6842F001021A6086
:10215C0007E07B681B681A687B681B6842F0010209
:10216C001A60002318461437BD4680BC704700BF68
:10217C00002C01400004004080B584B000AF7860B2
:10218C007B681B68DB68FB607B681B681B69BB603A
:10219C00BB6803F00203002B20D0FB6803F00203A2
:1021AC00002B1BD07B681B686FF002021A617B68E6
:1021BC0001221A777B681B689B6903F00303002BD1
:1021CC0003D0786800F098F905E0786800F08BF996
:1021DC00786800F09AF97B6800221A77BB6803F0E4
:1021EC000403002B20D0FB6803F00403002B1BD04E
:1021FC007B681B686FF004021A617B6802221A77F5
:10220C007B681B689B6903F44073002B03D07868D0
:10221C0000F072F905E0786800F065F9786800F074
:10222C0074F97B6800221A77BB6803F00803002B53
:10223C0020D0FB6803F00803002B1BD07B681B68C5
:10224C006FF008021A617B6804221A777B681B689E
:10225C00DB6903F00303002B03D0786800F04CF922
:10226C0005E0786800F03FF9786800F04EF97B687B
:10227C0000221A77BB6803F01003002B20D0FB68F8
:10228C0003F01003002B1BD07B681B686FF010024F
:10229C001A617B6808221A777B681B68DB6903F478
:1022AC004073002B03D0786800F026F905E07868BD
:1022BC0000F019F9786800F028F97B6800221A7789
:1022CC00BB6803F00103002B0CD0FB6803F0010387
:1022DC00002B07D07B681B686FF001021A617868CD
:1022EC00FEF748FCBB6803F08003002B0CD0FB68A6
:1022FC0003F08003002B07D07B681B686FF0800213
:10230C001A61786800F06FFABB6803F04003002B89
:10231C000CD0FB6803F04003002B07D07B681B68D4
:10232C006FF040021A61786800F0F8F8BB6803F0AF
:10233C002003002B0CD0FB6803F02003002B07D0EC
:10234C007B681B686FF020021A61786800F042FA13
:10235C0000BF1037BD4680BD80B584B000AF78603B
:10236C0039600023FB737B6893F83C30012B01D15F
:10237C000223B4E07B68012283F83C207B680222B4
:10238C0083F83D207B681B689B68BB60BB6823F0AF
:10239C007703BB60BB6823F47F43BB607B681B681F
:1023AC00BA689A603B681B68B3F5005F3ED0B3F522
:1023BC00005F00F28780B3F5805F00F08680B3F594
:1023CC00805F7FD8702B1AD0702B7BD8602B50D0AD
:1023DC00602B77D8502B3CD0502B73D8402B58D037
:1023EC00402B6FD8302B64D0302B6BD8202B60D087
:1023FC00202B67D8002B5CD0102B5AD062E07B6866
:10240C0018683B6899683B685A683B68DB6800F061
:10241C006AF97B681B689B68BB60BB6843F07703F9
:10242C00BB607B681B68BA689A604FE07B68186871
:10243C003B6899683B685A683B68DB6800F053F965
:10244C007B681B689A687B681B6842F480429A60C0
:10245C003CE07B6818683B6859683B68DB681A4647
:10246C0000F0CAF87B681B685021184600F021F96F
:10247C002CE07B6818683B6859683B68DB681A4637
:10248C0000F0E8F87B681B686021184600F011F931
:10249C001CE07B6818683B6859683B68DB681A4627
:1024AC0000F0AAF87B681B684021184600F001F97F
:1024BC000CE07B681A683B681B681946104600F0F4
:1024CC00F8F803E00123FB7300E000BF7B680122F6
:1024DC0083F83D207B68002283F83C20FB7B184668
:1024EC001037BD4680BD80B483B000AF786000BFAC
:1024FC000C37BD4680BC704780B483B000AF7860A9
:10250C0000BF0C37BD4680BC704780B483B000AFB1
:10251C00786000BF0C37BD4680BC704780B483B078
:10252C0000AF786000BF0C37BD4680BC7047000020
:10253C0080B485B000AF786039607B681B68FB6045
:10254C007B682B4A934207D07B68B3F1804F03D052
:10255C007B68284A934208D1FB6823F07003FB6028
:10256C003B685B68FA681343FB607B68204A9342C4
:10257C0007D07B68B3F1804F03D07B681D4A934230
:10258C0008D1FB6823F44073FB603B68DB68FA6896
:10259C001343FB60FB6823F080023B685B691343C9
:1025AC00FB607B68FA681A603B689A687B68DA6241
:1025BC003B681A687B689A627B680D4A934203D128
:1025CC003B681A697B681A637B6801225A617B68D5
:1025DC001B6903F00103002B05D07B681B6923F0FA
:1025EC0001027B681A6100BF1437BD4680BC70477E
:1025FC00002C01400004004080B487B000AFF860AC
:10260C00B9607A60FB681B6A7B61FB681B6A23F00C
:10261C000102FB681A62FB689B693B613B6923F012
:10262C00F0033B617B681B013A6913433B617B6997
:10263C0023F00A037B617A69BB6813437B61FB68F7
:10264C003A699A61FB687A691A6200BF1C37BD4609
:10265C0080BC704780B487B000AFF860B9607A6016
:10266C00FB681B6A7B61FB681B6A23F01002FB682A
:10267C001A62FB689B693B613B6923F470433B61C5
:10268C007B681B033A6913433B617B6923F0A0030E
:10269C007B61BB681B017A6913437B61FB683A69F8
:1026AC009A61FB687A691A6200BF1C37BD4680BC10
:1026BC00704780B485B000AF786039607B689B68E8
:1026CC00FB60FB6823F07003FB603A68FB68134304
:1026DC0043F00703FB607B68FA689A6000BF14370D
:1026EC00BD4680BC704780B487B000AFF860B9605D
:1026FC007A603B60FB689B687B617B6923F47F435A
:10270C007B613B681A027B681A43BB6813437A6986
:10271C0013437B61FB687A699A6000BF1C37BD4626
:10272C0080BC704780B485B000AF786039607B683E
:10273C0093F83C30012B01D1022341E07B6801224C
:10274C0083F83C207B68022283F83D207B681B6861
:10275C005B68FB607B681B689B68BB60FB6823F055
:10276C007003FB603B681B68FA681343FB607B6873
:10277C001B68FA685A607B681B68144A934209D03C
:10278C007B681B68B3F1804F04D07B681B68104AD0
:10279C0093420CD1BB6823F08003BB603B685B6841
:1027AC00BA681343BB607B681B68BA689A607B6825
:1027BC00012283F83D207B68002283F83C20002313
:1027CC0018461437BD4680BC704700BF002C014032
:1027DC000004004080B483B000AF786000BF0C37B9
:1027EC00BD4680BC704780B483B000AF786000BF3A
:1027FC000C37BD4680BC704703460244934200D15F
:10280C00704703F8011BF9E770B500260C4D0D4C11
:10281C00641BA410A64209D100F01AF800260A4D38
:10282C000A4C641BA410A64205D170BD55F8043B9C
:10283C0098470136EEE755F8043B98470136F2E726
:10284C009828000898280008982800089C28000858
:10285C00F8B500BFF8BC08BC9E467047F8B500BF81
:08286C00F8BC08BC9E46704751
:10287400000000000000000001020304060708092C
:1028840002030405060708090A0B0C0D0E0F1010AD
:04289400010200003D
:042898003101000802
:04289C000D01000822
:1028A000C0F9A4B0999282F8809000000100000065
:1028B0000000000000000000010000000000000017
:1028C0000000000001000000000000000000000007
:1028D00001000000000000000000000000127A006B
:0828E0001000000001000000DF
:04000005080011DD01
:00000001FF
